{
  "_format": "hh-sol-artifact-1",
  "contractName": "InvoiceRegistry",
  "sourceName": "contracts/InvoiceRegistry.sol",
  "abi": [
    {
      "anonymous": false,
      "inputs": [
        {
          "indexed": true,
          "internalType": "bytes32",
          "name": "invoiceHash",
          "type": "bytes32"
        },
        {
          "indexed": false,
          "internalType": "enum InvoiceRegistry.InvoiceStatus",
          "name": "status",
          "type": "uint8"
        }
      ],
      "name": "InvoiceStatusUpdated",
      "type": "event"
    },
    {
      "anonymous": false,
      "inputs": [
        {
          "indexed": true,
          "internalType": "bytes32",
          "name": "invoiceHash",
          "type": "bytes32"
        },
        {
          "indexed": true,
          "internalType": "address",
          "name": "payee",
          "type": "address"
        },
        {
          "indexed": false,
          "internalType": "uint256",
          "name": "amount",
          "type": "uint256"
        }
      ],
      "name": "InvoiceSubmitted",
      "type": "event"
    },
    {
      "anonymous": false,
      "inputs": [
        {
          "indexed": true,
          "internalType": "bytes32",
          "name": "invoiceHash",
          "type": "bytes32"
        },
        {
          "indexed": false,
          "internalType": "uint256",
          "name": "amount",
          "type": "uint256"
        }
      ],
      "name": "PaymentProcessed",
      "type": "event"
    },
    {
      "inputs": [
        {
          "internalType": "bytes32",
          "name": "_invoiceHash",
          "type": "bytes32"
        }
      ],
      "name": "getInvoice",
      "outputs": [
        {
          "components": [
            {
              "internalType": "bytes32",
              "name": "invoiceHash",
              "type": "bytes32"
            },
            {
              "internalType": "address",
              "name": "payee",
              "type": "address"
            },
            {
              "internalType": "uint256",
              "name": "amount",
              "type": "uint256"
            },
            {
              "internalType": "uint256",
              "name": "timestamp",
              "type": "uint256"
            },
            {
              "internalType": "enum InvoiceRegistry.InvoiceStatus",
              "name": "status",
              "type": "uint8"
            },
            {
              "internalType": "uint8",
              "name": "riskScore",
              "type": "uint8"
            },
            {
              "internalType": "string",
              "name": "metadata",
              "type": "string"
            }
          ],
          "internalType": "struct InvoiceRegistry.Invoice",
          "name": "",
          "type": "tuple"
        }
      ],
      "stateMutability": "view",
      "type": "function"
    },
    {
      "inputs": [
        {
          "internalType": "address",
          "name": "_user",
          "type": "address"
        }
      ],
      "name": "getUserInvoices",
      "outputs": [
        {
          "internalType": "bytes32[]",
          "name": "",
          "type": "bytes32[]"
        }
      ],
      "stateMutability": "view",
      "type": "function"
    },
    {
      "inputs": [
        {
          "internalType": "bytes32",
          "name": "",
          "type": "bytes32"
        }
      ],
      "name": "invoices",
      "outputs": [
        {
          "internalType": "bytes32",
          "name": "invoiceHash",
          "type": "bytes32"
        },
        {
          "internalType": "address",
          "name": "payee",
          "type": "address"
        },
        {
          "internalType": "uint256",
          "name": "amount",
          "type": "uint256"
        },
        {
          "internalType": "uint256",
          "name": "timestamp",
          "type": "uint256"
        },
        {
          "internalType": "enum InvoiceRegistry.InvoiceStatus",
          "name": "status",
          "type": "uint8"
        },
        {
          "internalType": "uint8",
          "name": "riskScore",
          "type": "uint8"
        },
        {
          "internalType": "string",
          "name": "metadata",
          "type": "string"
        }
      ],
      "stateMutability": "view",
      "type": "function"
    },
    {
      "inputs": [
        {
          "internalType": "bytes32",
          "name": "_invoiceHash",
          "type": "bytes32"
        }
      ],
      "name": "processPayment",
      "outputs": [],
      "stateMutability": "payable",
      "type": "function"
    },
    {
      "inputs": [
        {
          "internalType": "bytes32",
          "name": "_invoiceHash",
          "type": "bytes32"
        },
        {
          "internalType": "address",
          "name": "_payee",
          "type": "address"
        },
        {
          "internalType": "uint256",
          "name": "_amount",
          "type": "uint256"
        },
        {
          "internalType": "uint8",
          "name": "_riskScore",
          "type": "uint8"
        },
        {
          "internalType": "string",
          "name": "_metadata",
          "type": "string"
        }
      ],
      "name": "submitInvoice",
      "outputs": [],
      "stateMutability": "nonpayable",
      "type": "function"
    },
    {
      "inputs": [
        {
          "internalType": "bytes32",
          "name": "_invoiceHash",
          "type": "bytes32"
        },
        {
          "internalType": "enum InvoiceRegistry.InvoiceStatus",
          "name": "_status",
          "type": "uint8"
        }
      ],
      "name": "updateInvoiceStatus",
      "outputs": [],
      "stateMutability": "nonpayable",
      "type": "function"
    },
    {
      "inputs": [
        {
          "internalType": "address",
          "name": "",
          "type": "address"
        },
        {
          "internalType": "uint256",
          "name": "",
          "type": "uint256"
        }
      ],
      "name": "userInvoices",
      "outputs": [
        {
          "internalType": "bytes32",
          "name": "",
          "type": "bytes32"
        }
      ],
      "stateMutability": "view",
      "type": "function"
    }
  ],
  "bytecode": "0x608060405234801561001057600080fd5b5061185b806100206000396000f3fe6080604052600436106100705760003560e01c80633a74717d1161004e5780633a74717d14610118578063afab1d1c14610134578063cb802c8b1461015d578063f8a8a0761461019a57610070565b80630ad6b0a5146100755780631fcdcfe5146100b257806324d3b3e2146100db575b600080fd5b34801561008157600080fd5b5061009c60048036038101906100979190610bcc565b6101dd565b6040516100a99190610c25565b60405180910390f35b3480156100be57600080fd5b506100d960048036038101906100d49190610c91565b61020e565b005b3480156100e757600080fd5b5061010260048036038101906100fd9190610cd1565b61032c565b60405161010f9190610dbc565b60405180910390f35b610132600480360381019061012d9190610dde565b6103c3565b005b34801561014057600080fd5b5061015b60048036038101906101569190610f8a565b6105d7565b005b34801561016957600080fd5b50610184600480360381019061017f9190610dde565b61082b565b60405161019191906111e0565b60405180910390f35b3480156101a657600080fd5b506101c160048036038101906101bc9190610dde565b6109b5565b6040516101d49796959493929190611288565b60405180910390f35b600160205281600052604060002081815481106101f957600080fd5b90600052602060002001600091509150505481565b813373ffffffffffffffffffffffffffffffffffffffff1660008083815260200190815260200160002060010160009054906101000a900473ffffffffffffffffffffffffffffffffffffffff1673ffffffffffffffffffffffffffffffffffffffff16146102b2576040517f08c379a00000000000000000000000000000000000000000000000000000000081526004016102a99061134a565b60405180910390fd5b8160008085815260200190815260200160002060040160006101000a81548160ff021916908360038111156102ea576102e961103f565b5b0217905550827f6da8f5a2b88d07c340989b7d70074a82872b24caa5639142c1a4f3dbbb28c7788360405161031f919061136a565b60405180910390a2505050565b6060600160008373ffffffffffffffffffffffffffffffffffffffff1673ffffffffffffffffffffffffffffffffffffffff1681526020019081526020016000208054806020026020016040519081016040528092919081815260200182805480156103b757602002820191906000526020600020905b8154815260200190600101908083116103a3575b50505050509050919050565b60008060008381526020019081526020016000209050600160038111156103ed576103ec61103f565b5b8160040160009054906101000a900460ff1660038111156104115761041061103f565b5b14610451576040517f08c379a0000000000000000000000000000000000000000000000000000000008152600401610448906113d1565b60405180910390fd5b8060020154341015610498576040517f08c379a000000000000000000000000000000000000000000000000000000000815260040161048f9061143d565b60405180910390fd5b60028160040160006101000a81548160ff021916908360038111156104c0576104bf61103f565b5b02179055508060010160009054906101000a900473ffffffffffffffffffffffffffffffffffffffff1673ffffffffffffffffffffffffffffffffffffffff166108fc82600201549081150290604051600060405180830381858888f19350505050158015610533573d6000803e3d6000fd5b508060020154341115610597573373ffffffffffffffffffffffffffffffffffffffff166108fc82600201543461056a919061148c565b9081150290604051600060405180830381858888f19350505050158015610595573d6000803e3d6000fd5b505b817fd6950d49b769cdf8a136d8b2dd19b86a4582d0aee36c6348c8d14b8623925a7f82600201546040516105cb91906114c0565b60405180910390a25050565b6000806000878152602001908152602001600020600301541461062f576040517f08c379a000000000000000000000000000000000000000000000000000000000815260040161062690611527565b60405180910390fd5b6040518060e001604052808681526020018573ffffffffffffffffffffffffffffffffffffffff1681526020018481526020014281526020016000600381111561067c5761067b61103f565b5b81526020018360ff168152602001828152506000808781526020019081526020016000206000820151816000015560208201518160010160006101000a81548173ffffffffffffffffffffffffffffffffffffffff021916908373ffffffffffffffffffffffffffffffffffffffff160217905550604082015181600201556060820151816003015560808201518160040160006101000a81548160ff021916908360038111156107305761072f61103f565b5b021790555060a08201518160040160016101000a81548160ff021916908360ff16021790555060c082015181600501908161076b9190611753565b50905050600160008573ffffffffffffffffffffffffffffffffffffffff1673ffffffffffffffffffffffffffffffffffffffff1681526020019081526020016000208590806001815401808255809150506001900390600052602060002001600090919091909150558373ffffffffffffffffffffffffffffffffffffffff16857ffb1a3b14c6bb70552871e7ba9321fce000f450dfa2545eddb56a9a873f16ec368560405161081c91906114c0565b60405180910390a35050505050565b610833610ab9565b6000808381526020019081526020016000206040518060e0016040529081600082015481526020016001820160009054906101000a900473ffffffffffffffffffffffffffffffffffffffff1673ffffffffffffffffffffffffffffffffffffffff1673ffffffffffffffffffffffffffffffffffffffff16815260200160028201548152602001600382015481526020016004820160009054906101000a900460ff1660038111156108e9576108e861103f565b5b60038111156108fb576108fa61103f565b5b81526020016004820160019054906101000a900460ff1660ff1660ff16815260200160058201805461092c90611576565b80601f016020809104026020016040519081016040528092919081815260200182805461095890611576565b80156109a55780601f1061097a576101008083540402835291602001916109a5565b820191906000526020600020905b81548152906001019060200180831161098857829003601f168201915b5050505050815250509050919050565b60006020528060005260406000206000915090508060000154908060010160009054906101000a900473ffffffffffffffffffffffffffffffffffffffff16908060020154908060030154908060040160009054906101000a900460ff16908060040160019054906101000a900460ff1690806005018054610a3690611576565b80601f0160208091040260200160405190810160405280929190818152602001828054610a6290611576565b8015610aaf5780601f10610a8457610100808354040283529160200191610aaf565b820191906000526020600020905b815481529060010190602001808311610a9257829003601f168201915b5050505050905087565b6040518060e0016040528060008019168152602001600073ffffffffffffffffffffffffffffffffffffffff168152602001600081526020016000815260200160006003811115610b0d57610b0c61103f565b5b8152602001600060ff168152602001606081525090565b6000604051905090565b600080fd5b600080fd5b600073ffffffffffffffffffffffffffffffffffffffff82169050919050565b6000610b6382610b38565b9050919050565b610b7381610b58565b8114610b7e57600080fd5b50565b600081359050610b9081610b6a565b92915050565b6000819050919050565b610ba981610b96565b8114610bb457600080fd5b50565b600081359050610bc681610ba0565b92915050565b60008060408385031215610be357610be2610b2e565b5b6000610bf185828601610b81565b9250506020610c0285828601610bb7565b9150509250929050565b6000819050919050565b610c1f81610c0c565b82525050565b6000602082019050610c3a6000830184610c16565b92915050565b610c4981610c0c565b8114610c5457600080fd5b50565b600081359050610c6681610c40565b92915050565b60048110610c7957600080fd5b50565b600081359050610c8b81610c6c565b92915050565b60008060408385031215610ca857610ca7610b2e565b5b6000610cb685828601610c57565b9250506020610cc785828601610c7c565b9150509250929050565b600060208284031215610ce757610ce6610b2e565b5b6000610cf584828501610b81565b91505092915050565b600081519050919050565b600082825260208201905092915050565b6000819050602082019050919050565b610d3381610c0c565b82525050565b6000610d458383610d2a565b60208301905092915050565b6000602082019050919050565b6000610d6982610cfe565b610d738185610d09565b9350610d7e83610d1a565b8060005b83811015610daf578151610d968882610d39565b9750610da183610d51565b925050600181019050610d82565b5085935050505092915050565b60006020820190508181036000830152610dd68184610d5e565b905092915050565b600060208284031215610df457610df3610b2e565b5b6000610e0284828501610c57565b91505092915050565b600060ff82169050919050565b610e2181610e0b565b8114610e2c57600080fd5b50565b600081359050610e3e81610e18565b92915050565b600080fd5b600080fd5b6000601f19601f8301169050919050565b7f4e487b7100000000000000000000000000000000000000000000000000000000600052604160045260246000fd5b610e9782610e4e565b810181811067ffffffffffffffff82111715610eb657610eb5610e5f565b5b80604052505050565b6000610ec9610b24565b9050610ed58282610e8e565b919050565b600067ffffffffffffffff821115610ef557610ef4610e5f565b5b610efe82610e4e565b9050602081019050919050565b82818337600083830152505050565b6000610f2d610f2884610eda565b610ebf565b905082815260208101848484011115610f4957610f48610e49565b5b610f54848285610f0b565b509392505050565b600082601f830112610f7157610f70610e44565b5b8135610f81848260208601610f1a565b91505092915050565b600080600080600060a08688031215610fa657610fa5610b2e565b5b6000610fb488828901610c57565b9550506020610fc588828901610b81565b9450506040610fd688828901610bb7565b9350506060610fe788828901610e2f565b925050608086013567ffffffffffffffff81111561100857611007610b33565b5b61101488828901610f5c565b9150509295509295909350565b61102a81610b58565b82525050565b61103981610b96565b82525050565b7f4e487b7100000000000000000000000000000000000000000000000000000000600052602160045260246000fd5b6004811061107f5761107e61103f565b5b50565b60008190506110908261106e565b919050565b60006110a082611082565b9050919050565b6110b081611095565b82525050565b6110bf81610e0b565b82525050565b600081519050919050565b600082825260208201905092915050565b60005b838110156110ff5780820151818401526020810190506110e4565b60008484015250505050565b6000611116826110c5565b61112081856110d0565b93506111308185602086016110e1565b61113981610e4e565b840191505092915050565b600060e08301600083015161115c6000860182610d2a565b50602083015161116f6020860182611021565b5060408301516111826040860182611030565b5060608301516111956060860182611030565b5060808301516111a860808601826110a7565b5060a08301516111bb60a08601826110b6565b5060c083015184820360c08601526111d3828261110b565b9150508091505092915050565b600060208201905081810360008301526111fa8184611144565b905092915050565b61120b81610b58565b82525050565b61121a81610b96565b82525050565b61122981611095565b82525050565b61123881610e0b565b82525050565b600082825260208201905092915050565b600061125a826110c5565b611264818561123e565b93506112748185602086016110e1565b61127d81610e4e565b840191505092915050565b600060e08201905061129d600083018a610c16565b6112aa6020830189611202565b6112b76040830188611211565b6112c46060830187611211565b6112d16080830186611220565b6112de60a083018561122f565b81810360c08301526112f0818461124f565b905098975050505050505050565b7f4e6f7420696e766f696365206f776e6572000000000000000000000000000000600082015250565b600061133460118361123e565b915061133f826112fe565b602082019050919050565b6000602082019050818103600083015261136381611327565b9050919050565b600060208201905061137f6000830184611220565b92915050565b7f496e766f696365206e6f7420617070726f766564000000000000000000000000600082015250565b60006113bb60148361123e565b91506113c682611385565b602082019050919050565b600060208201905081810360008301526113ea816113ae565b9050919050565b7f496e73756666696369656e74207061796d656e74000000000000000000000000600082015250565b600061142760148361123e565b9150611432826113f1565b602082019050919050565b600060208201905081810360008301526114568161141a565b9050919050565b7f4e487b7100000000000000000000000000000000000000000000000000000000600052601160045260246000fd5b600061149782610b96565b91506114a283610b96565b92508282039050818111156114ba576114b961145d565b5b92915050565b60006020820190506114d56000830184611211565b92915050565b7f496e766f69636520616c72656164792065786973747300000000000000000000600082015250565b600061151160168361123e565b915061151c826114db565b602082019050919050565b6000602082019050818103600083015261154081611504565b9050919050565b7f4e487b7100000000000000000000000000000000000000000000000000000000600052602260045260246000fd5b6000600282049050600182168061158e57607f821691505b6020821081036115a1576115a0611547565b5b50919050565b60008190508160005260206000209050919050565b60006020601f8301049050919050565b600082821b905092915050565b6000600883026116097fffffffffffffffffffffffffffffffffffffffffffffffffffffffffffffffff826115cc565b61161386836115cc565b95508019841693508086168417925050509392505050565b6000819050919050565b600061165061164b61164684610b96565b61162b565b610b96565b9050919050565b6000819050919050565b61166a83611635565b61167e61167682611657565b8484546115d9565b825550505050565b600090565b611693611686565b61169e818484611661565b505050565b5b818110156116c2576116b760008261168b565b6001810190506116a4565b5050565b601f821115611707576116d8816115a7565b6116e1846115bc565b810160208510156116f0578190505b6117046116fc856115bc565b8301826116a3565b50505b505050565b600082821c905092915050565b600061172a6000198460080261170c565b1980831691505092915050565b60006117438383611719565b9150826002028217905092915050565b61175c826110c5565b67ffffffffffffffff81111561177557611774610e5f565b5b61177f8254611576565b61178a8282856116c6565b600060209050601f8311600181146117bd57600084156117ab578287015190505b6117b58582611737565b86555061181d565b601f1984166117cb866115a7565b60005b828110156117f3578489015182556001820191506020850194506020810190506117ce565b86831015611810578489015161180c601f891682611719565b8355505b6001600288020188555050505b50505050505056fea2646970667358221220e20e1fd45a0040dbf2006646036d88c500b3525245cf1885a4e6e5aa56d4f78964736f6c63430008130033",
  "linkReferences": {},
  "deployedLinkReferences": {}
}